STDTIM1843SPPLH20201018  210054                                                                                                                                                                                                                                    
STDTIM1843SPPLD0000001006CV9015070      åíàëíêàãèàíÑê âéãèäÑ                                   00000024420PARTS     00000000000                      HOT                                                                                                 
STDTIM1843SPPLD000000200606373ZY3810    06373ZY3811                             06373ZY3811    00000098547PARTS     00000000000                  00F HPP                                                                                                 
STDTIM1843SPPLD0000003006958010602002   BOLT, FLANGE, 6X20                                     00000000000PARTS     00000000000                  00C HOT                                                                                                 
STDTIM1843SPPLD000000400677250MBTD10ZB  éìêÄ ëÑääÄë NH359M                                     00000024508PARTS     00000000000                  00C HMC                                                                                                 
STDTIM1843SPPLD000000500671700S5SE01ZQ  ÄÑêéíéãÜ                                               00000004808PARTS     00000000000                  00S HMA                                                                                                 
STDTIM1843SPPLD021355900671530S6DE00ZZ  71530S6D306ZZ                           71530S6D306ZZ  00000009699PARTS     00000000000                  00C HMA                                                                                                 
STDTIM1843SPPLD021356000681115HACD00ZD  LID SET NH-463M                                        00000000000PARTS     00000000000                  00F HMC                                                                                                 
STDTIM1843SPPLD021356100619200MN4000    PUMP COMP., WATER                                      00000017478PARTS     00000000000                  00A HMC                                                                                                 
STDTIM1843SPPLD021356200661103KY2710    ÅÄëÜ Ñãè.èíÑêéì                                        00000001083PARTS     00000000000                  00B HMC                                                                                                 
STDTIM1843SPPLD021356300622863MG9003    PISTON,SLAVE CYLI                                      00000001917PARTS     00000000000                  00A HMC                                                                                                 
STDTIM1843SPPLD021356400644311KPH970    âéääÄêé                                                00000000447PARTS     00000000000                  00C HMC                                                                                                 
STDTIM1843SPPLD021356500617210PM1G10    âÄèÄâà îàäíêéì ÄÑê.                                    00000001530PARTS     00000000000                  00S HMA                                                                                                 
STDTIM1843SPPLD021356600630410KB4008    CDI UNIT                                               00000010141PARTS     00000000000                  00A HMC                                                                                                 
STDTIM1843SPPLD021637300608F72MKFD40ZA  KIT,SEAT CO*R334*                                      00000020224PARTS     00000000000                  00F HMC                                                                                                 
STDTIM1843SPPLD021637400618400351621    MUFFLER,L.EXHAUST                                      00000026015PARTS     00000000000                  00C HMC                                                                                                 
STDTIM1843SPPLD021637500676886TGNG01ZH  NOZZLE CA*NH731P*                                      00000003108PARTS     00000000000                  00C HMA                                                                                                 
STDTIM1843SPPLD021637600679960TV1G02    PUMP ASSY., WATER                                      00000004281PARTS     00000000000                  00A HMA                                                                                                 
STDTIM1843SPPLD021637700608F84MER8J0    29L COLOUR PANEL SET                                   00000008086PARTS     00000000000                  00F HMC                                                                                                 
STDTIM1843SPPLD021637800678501S2AA72ZA  íàãéåà                                                 00000055289PARTS     00000000000                  00A HMA                                                                                                 
STDTIM1843SPPLD021637900683550MGE000    URETHANE B, R. HEAT                                    00000000245PARTS     00000000000                  00A HMC                                                                                                 
STDTIM1843SPPLD021638000690515GN5910    êéÉÑääÄ     4ï8                                        00000000094PARTS     00000000000                  00A HMC                                                                                                 
STDTIM1843SPPLD021638100688210K26900    88210K26901 âÄáêÑèíÜë ÉÑçàéë            88210K26901    00000001609PARTS     00000000000                  00B HMC                                                                                                 
STDTIM1843SPPLD021638200660841TM8G00ZZ  STIFFENER, R. FR. BU                                   00000001009PARTS     00000000000                  00B HMA                                                                                                 
STDTIM1843SPPLD021638300683581SMGE04ZA  ÑèÑåÉ èéêíÄë Äêàëí ãèê *NH167L ãÄìê GRAP               00000014265PARTS     00000000000                  00B HMA                                                                                                 
STDTIM1843SPPLD021638400664425GCMH00ZD  ÄìíéâéääÜíé                                            00000000218PARTS     00000000000                  00S HMC                                                                                                 
STDTIM1843SPPLD0216413006SPTRANSALP700  íÑäéë ëíéâ 31916KRM841(2)15410MCJ505(1)1               00000006786PARTS     00000000000                      HMC                                                                                                 
STDTIM1843SPPLD0216414006SPPCX1252011REGíÑäéë ëíéâ 31917KPH901(1)17210KWN900(1)0               00000000989PARTS     00000000000                      HMC                                                                                                 
STDTIM1843SPPLD0216415006SPPCX1252012REGíÑäéë ëíéâ 31917KPH901(1)17210KZR600(1)0               00000000989PARTS     00000000000                      HMC                                                                                                 
STDTIM1843SPPLD0216416006SPPCX1252011EXTíÑäéë ëíéâ 31917KPH901-17210KWN900-23100               00000003338PARTS     00000000000                      HMC                                                                                                 
STDTIM1843SPPLD0216417006SPPCX1252012EXTíÑäéë ëíéâ 31917KPH901-17210KZR600-23100               00000003916PARTS     00000000000                      HMC                                                                                                 
STDTIM1843SPPLD0216418006SPSH150REG     íÑäéë ëíéâ 9805958916(1)17210KGF901(1)08               00000001686PARTS     00000000000                      HMC                                                                                                 
STDTIM1843SPPLD0216419006SPSH150EXT     íÑäéë ëíéâ 9805958916-17210KGF901-23100K               00000004139PARTS     00000000000                      HMC                                                                                                 
STDTIM1843SPPLD0216420006SPTRANSALP650  íÑäéë ëíéâ 9806958916(4)15410MCJ505(1)17               00000005763PARTS     00000000000                      HMC                                                                                                 
STDTIM1843SPPLD0216421006SPVARADEROCARB íÑäéë ëíéâ 980695891F(2)15410MFJD01(1)17               00000006643PARTS     00000000000                      HMC                                                                                                 
